{
  "contractName": "StrawberryManager",
  "abi": [
    {
      "anonymous": false,
      "inputs": [
        {
          "indexed": false,
          "internalType": "uint256",
          "name": "_strawberryIndex",
          "type": "uint256"
        },
        {
          "indexed": false,
          "internalType": "uint256",
          "name": "_phase",
          "type": "uint256"
        },
        {
          "indexed": false,
          "internalType": "uint256",
          "name": "_status",
          "type": "uint256"
        },
        {
          "indexed": false,
          "internalType": "address",
          "name": "_address",
          "type": "address"
        }
      ],
      "name": "SupplyChainPhase",
      "type": "event"
    },
    {
      "inputs": [
        {
          "internalType": "uint256",
          "name": "",
          "type": "uint256"
        }
      ],
      "name": "strawberries",
      "outputs": [
        {
          "internalType": "contract Strawberry",
          "name": "_strawberry",
          "type": "address"
        },
        {
          "internalType": "string",
          "name": "_identifier",
          "type": "string"
        },
        {
          "internalType": "enum StrawberryManager.Phases",
          "name": "_phase",
          "type": "uint8"
        },
        {
          "internalType": "enum StrawberryManager.Status",
          "name": "_status",
          "type": "uint8"
        },
        {
          "internalType": "uint256",
          "name": "_priceInWei",
          "type": "uint256"
        }
      ],
      "stateMutability": "view",
      "type": "function",
      "constant": true
    },
    {
      "inputs": [
        {
          "internalType": "string",
          "name": "_identifier",
          "type": "string"
        },
        {
          "internalType": "uint256",
          "name": "_priceInWei",
          "type": "uint256"
        }
      ],
      "name": "createStrawberry",
      "outputs": [],
      "stateMutability": "nonpayable",
      "type": "function"
    },
    {
      "inputs": [
        {
          "internalType": "uint256",
          "name": "_index",
          "type": "uint256"
        }
      ],
      "name": "triggerPayment",
      "outputs": [],
      "stateMutability": "payable",
      "type": "function",
      "payable": true
    },
    {
      "inputs": [
        {
          "internalType": "uint256",
          "name": "_strawberryIndex",
          "type": "uint256"
        }
      ],
      "name": "package",
      "outputs": [],
      "stateMutability": "nonpayable",
      "type": "function"
    },
    {
      "inputs": [
        {
          "internalType": "uint256",
          "name": "_strawberryIndex",
          "type": "uint256"
        }
      ],
      "name": "deliver",
      "outputs": [],
      "stateMutability": "nonpayable",
      "type": "function"
    },
    {
      "inputs": [
        {
          "internalType": "uint256",
          "name": "_strawberryIndex",
          "type": "uint256"
        }
      ],
      "name": "changeStatusWarning",
      "outputs": [],
      "stateMutability": "nonpayable",
      "type": "function"
    },
    {
      "inputs": [
        {
          "internalType": "uint256",
          "name": "_strawberryIndex",
          "type": "uint256"
        }
      ],
      "name": "changeStatusUnfit",
      "outputs": [],
      "stateMutability": "nonpayable",
      "type": "function"
    }
  ],
  "bytecode": "0x608060405234801561001057600080fd5b506113b3806100206000396000f3fe6080604052600436106100705760003560e01c80637f48eb4b1161004e5780637f48eb4b146101bd578063800fb83f146101f8578063976e0c6c14610226578063d29b92cc1461026157610070565b80633bd5d1731461007557806350644316146100b057806372c5481b146100eb575b600080fd5b34801561008157600080fd5b506100ae6004803603602081101561009857600080fd5b8101908080359060200190929190505050610379565b005b3480156100bc57600080fd5b506100e9600480360360208110156100d357600080fd5b810190808035906020019092919050505061053a565b005b3480156100f757600080fd5b506101bb6004803603604081101561010e57600080fd5b810190808035906020019064010000000081111561012b57600080fd5b82018360208201111561013d57600080fd5b8035906020019184600183028401116401000000008311171561015f57600080fd5b91908080601f016020809104026020016040519081016040528093929190818152602001838380828437600081840152601f19601f82011690508083019250505050505050919291929080359060200190929190505050610574565b005b3480156101c957600080fd5b506101f6600480360360208110156101e057600080fd5b81019080803590602001909291905050506107ec565b005b6102246004803603602081101561020e57600080fd5b8101908080359060200190929190505050610826565b005b34801561023257600080fd5b5061025f6004803603602081101561024957600080fd5b8101908080359060200190929190505050610b2e565b005b34801561026d57600080fd5b5061029a6004803603602081101561028457600080fd5b8101908080359060200190929190505050610ceb565b604051808673ffffffffffffffffffffffffffffffffffffffff1673ffffffffffffffffffffffffffffffffffffffff168152602001806020018560038111156102e057fe5b60ff1681526020018460028111156102f457fe5b60ff168152602001838152602001828103825286818151815260200191508051906020019080838360005b8381101561033a57808201518184015260208101905061031f565b50505050905090810190601f1680156103675780820380516001836020036101000a031916815260200191505b50965050505050505060405180910390f35b6001600381111561038657fe5b60008083815260200190815260200160002060020160009054906101000a900460ff1660038111156103b457fe5b14610427576040517f08c379a000000000000000000000000000000000000000000000000000000000815260040180806020018281038252601c8152602001807f6974656d206973206675727468657220696e2074686520636861696e0000000081525060200191505060405180910390fd5b600260008083815260200190815260200160002060020160006101000a81548160ff0219169083600381111561045957fe5b02179055507f986f85536d189a0de7bc7d7d6f9a321a17a3540eb246f8ac9afcf5240aabd09d60015460008084815260200190815260200160002060020160009054906101000a900460ff1660038111156104b057fe5b600080600154815260200190815260200160002060020160019054906101000a900460ff1660028111156104e057fe5b84604051808581526020018481526020018381526020018273ffffffffffffffffffffffffffffffffffffffff1673ffffffffffffffffffffffffffffffffffffffff16815260200194505050505060405180910390a150565b600260008083815260200190815260200160002060020160016101000a81548160ff0219169083600281111561056c57fe5b021790555050565b6000308260015460405161058790610df3565b808473ffffffffffffffffffffffffffffffffffffffff1673ffffffffffffffffffffffffffffffffffffffff1681526020018381526020018281526020019350505050604051809103906000f0801580156105e7573d6000803e3d6000fd5b50905080600080600154815260200190815260200160002060000160006101000a81548173ffffffffffffffffffffffffffffffffffffffff021916908373ffffffffffffffffffffffffffffffffffffffff160217905550826000806001548152602001908152602001600020600101908051906020019061066b929190610e00565b50816000806001548152602001908152602001600020600301819055506000806000600154815260200190815260200160002060020160006101000a81548160ff021916908360038111156106bc57fe5b02179055506000806000600154815260200190815260200160002060020160016101000a81548160ff021916908360028111156106f557fe5b02179055507f986f85536d189a0de7bc7d7d6f9a321a17a3540eb246f8ac9afcf5240aabd09d600154600080600154815260200190815260200160002060020160009054906101000a900460ff16600381111561074e57fe5b600080600154815260200190815260200160002060020160019054906101000a900460ff16600281111561077e57fe5b84604051808581526020018481526020018381526020018273ffffffffffffffffffffffffffffffffffffffff1673ffffffffffffffffffffffffffffffffffffffff16815260200194505050505060405180910390a1600160008154809291906001019190505550505050565b600160008083815260200190815260200160002060020160016101000a81548160ff0219169083600281111561081e57fe5b021790555050565b600080600083815260200190815260200160002060000160009054906101000a900473ffffffffffffffffffffffffffffffffffffffff1690503373ffffffffffffffffffffffffffffffffffffffff168173ffffffffffffffffffffffffffffffffffffffff16146108e4576040517f08c379a000000000000000000000000000000000000000000000000000000000815260040180806020018281038252602b815260200180611353602b913960400191505060405180910390fd5b348173ffffffffffffffffffffffffffffffffffffffff16633c8da5886040518163ffffffff1660e01b815260040160206040518083038186803b15801561092b57600080fd5b505afa15801561093f573d6000803e3d6000fd5b505050506040513d602081101561095557600080fd5b8101908080519060200190929190505050146109d9576040517f08c379a00000000000000000000000000000000000000000000000000000000081526004018080602001828103825260128152602001807f6e6f742066756c6c79207061696420796574000000000000000000000000000081525060200191505060405180910390fd5b600260038111156109e657fe5b60008084815260200190815260200160002060020160009054906101000a900460ff166003811115610a1457fe5b14610a1e57600080fd5b600360008084815260200190815260200160002060020160006101000a81548160ff02191690836003811115610a5057fe5b02179055507f986f85536d189a0de7bc7d7d6f9a321a17a3540eb246f8ac9afcf5240aabd09d8260008085815260200190815260200160002060020160009054906101000a900460ff166003811115610aa557fe5b60008086815260200190815260200160002060020160019054906101000a900460ff166002811115610ad357fe5b84604051808581526020018481526020018381526020018273ffffffffffffffffffffffffffffffffffffffff1673ffffffffffffffffffffffffffffffffffffffff16815260200194505050505060405180910390a15050565b60006003811115610b3b57fe5b60008083815260200190815260200160002060020160009054906101000a900460ff166003811115610b6957fe5b14610bdc576040517f08c379a000000000000000000000000000000000000000000000000000000000815260040180806020018281038252601c8152602001807f6974656d206973206675727468657220696e2074686520636861696e0000000081525060200191505060405180910390fd5b600160008083815260200190815260200160002060020160006101000a81548160ff02191690836003811115610c0e57fe5b02179055507f986f85536d189a0de7bc7d7d6f9a321a17a3540eb246f8ac9afcf5240aabd09d8160008084815260200190815260200160002060020160009054906101000a900460ff166003811115610c6357fe5b60008085815260200190815260200160002060020160019054906101000a900460ff166002811115610c9157fe5b84604051808581526020018481526020018381526020018273ffffffffffffffffffffffffffffffffffffffff1673ffffffffffffffffffffffffffffffffffffffff16815260200194505050505060405180910390a150565b60006020528060005260406000206000915090508060000160009054906101000a900473ffffffffffffffffffffffffffffffffffffffff1690806001018054600181600116156101000203166002900480601f016020809104026020016040519081016040528092919081815260200182805460018160011615610100020316600290048015610dbd5780601f10610d9257610100808354040283529160200191610dbd565b820191906000526020600020905b815481529060010190602001808311610da057829003601f168201915b5050505050908060020160009054906101000a900460ff16908060020160019054906101000a900460ff16908060030154905085565b6104ad80610ea683390190565b828054600181600116156101000203166002900490600052602060002090601f016020900481019282601f10610e4157805160ff1916838001178555610e6f565b82800160010185558215610e6f579182015b82811115610e6e578251825591602001919060010190610e53565b5b509050610e7c9190610e80565b5090565b610ea291905b80821115610e9e576000816000905550600101610e86565b5090565b9056fe608060405234801561001057600080fd5b506040516104ad3803806104ad8339818101604052606081101561003357600080fd5b81019080805190602001909291908051906020019092919080519060200190929190505050816000819055508060028190555082600360006101000a81548173ffffffffffffffffffffffffffffffffffffffff021916908373ffffffffffffffffffffffffffffffffffffffff1602179055505050506103f4806100b96000396000f3fe6080604052600436106100385760003560e01c80632986c0e51461032b5780633c8da5881461035657806383d12eef146103815761031c565b3661031c5760005434146100b4576040517f08c379a00000000000000000000000000000000000000000000000000000000081526004018080602001828103825260118152602001807f66756c6c207061796d656e74206f6e6c7900000000000000000000000000000081525060200191505060405180910390fd5b60006001541461012c576040517f08c379a00000000000000000000000000000000000000000000000000000000081526004018080602001828103825260118152602001807f6974656d207061696420616c726561647900000000000000000000000000000081525060200191505060405180910390fd5b346001600082825401925050819055506000600360009054906101000a900473ffffffffffffffffffffffffffffffffffffffff1673ffffffffffffffffffffffffffffffffffffffff1634600254604051602401808281526020019150506040516020818303038152906040527f800fb83f000000000000000000000000000000000000000000000000000000007bffffffffffffffffffffffffffffffffffffffffffffffffffffffff19166020820180517bffffffffffffffffffffffffffffffffffffffffffffffffffffffff83818316178352505050506040518082805190602001908083835b6020831061023b5780518252602082019150602081019050602083039250610218565b6001836020036101000a03801982511681845116808217855250505050505090500191505060006040518083038185875af1925050503d806000811461029d576040519150601f19603f3d011682016040523d82523d6000602084013e6102a2565b606091505b5050905080610319576040517f08c379a00000000000000000000000000000000000000000000000000000000081526004018080602001828103825260148152602001807f64656c6976657220646964206e6f7420776f726b00000000000000000000000081525060200191505060405180910390fd5b50005b34801561032857600080fd5b50005b34801561033757600080fd5b506103406103ac565b6040518082815260200191505060405180910390f35b34801561036257600080fd5b5061036b6103b2565b6040518082815260200191505060405180910390f35b34801561038d57600080fd5b506103966103b8565b6040518082815260200191505060405180910390f35b60025481565b60005481565b6001548156fea2646970667358221220f834029223d9a5ee7c82aff16eb22cccb9477233ef6e8f5d2ad0bcbecac75f5364736f6c634300060100336f6e6c79206974656d732061726520616c6c6f77656420746f20757064617465207468656d73656c766573a26469706673582212205aa337e2e67d37f84326bb26eb208e64f8cb482d450da3196d18ce5bed02fc5e64736f6c63430006010033",
  "source": "pragma solidity ^0.6.0;\n\nimport \"./Strawberry.sol\";\n\n//import \"@openzeppelin/contracts/access/Ownable.sol\";\n//import \"https://github.com/OpenZeppelin/openzeppelin-contracts/blob/master/contracts/access/Ownable.sol\";\n\n/*is Ownable*/\ncontract StrawberryManager {\n    enum Phases {Processed, Packaged, Delivered, Paid}\n    enum Status {Good, Warning, UnfitForSale}\n\n    struct S_Strawberry {\n        Strawberry _strawberry;\n        string _identifier;\n        StrawberryManager.Phases _phase;\n        StrawberryManager.Status _status;\n        uint256 _priceInWei;\n    }\n\n    mapping(uint256 => S_Strawberry) public strawberries;\n    uint256 strawberryIndex;\n\n    event SupplyChainPhase(\n        uint256 _strawberryIndex,\n        uint256 _phase,\n        uint256 _status,\n        address _address\n    );\n\n    function createStrawberry(string memory _identifier, uint256 _priceInWei)\n        public\n    /*onlyOwner*/\n    {\n        Strawberry strawberry = new Strawberry(\n            this,\n            _priceInWei,\n            strawberryIndex\n        );\n        strawberries[strawberryIndex]._strawberry = strawberry;\n        strawberries[strawberryIndex]._identifier = _identifier;\n        strawberries[strawberryIndex]._priceInWei = _priceInWei;\n        strawberries[strawberryIndex]._phase = Phases.Processed;\n        strawberries[strawberryIndex]._status = Status.Good;\n        emit SupplyChainPhase(\n            strawberryIndex,\n            uint256(strawberries[strawberryIndex]._phase),\n            uint256(strawberries[strawberryIndex]._status),\n            address(strawberry)\n        );\n        strawberryIndex++;\n    }\n\n    function triggerPayment(uint256 _index) public payable {\n        Strawberry strawberry = strawberries[_index]._strawberry;\n        require(\n            address(strawberry) == msg.sender,\n            \"only items are allowed to update themselves\"\n        );\n        require(strawberry.priceInWei() == msg.value, \"not fully paid yet\");\n        require(strawberries[_index]._phase == Phases.Delivered);\n        strawberries[_index]._phase = Phases.Paid;\n        emit SupplyChainPhase(\n            _index,\n            uint256(strawberries[_index]._phase),\n            uint256(strawberries[_index]._status),\n            address(strawberry)\n        );\n    }\n\n    function package(uint256 _strawberryIndex) public {\n        //perform checks like the user is allowed to change the phase\n        require(\n            strawberries[_strawberryIndex]._phase == Phases.Processed,\n            \"item is further in the chain\"\n        );\n        strawberries[_strawberryIndex]._phase = Phases.Packaged;\n\n        emit SupplyChainPhase(\n            _strawberryIndex,\n            uint256(strawberries[_strawberryIndex]._phase),\n            uint256(strawberries[_strawberryIndex]._status),\n            address(_strawberryIndex)\n        );\n    }\n\n    function deliver(uint256 _strawberryIndex) public {\n        //perform checks like the user is allowed to change the phase\n        require(\n            strawberries[_strawberryIndex]._phase == Phases.Packaged,\n            \"item is further in the chain\"\n        );\n        strawberries[_strawberryIndex]._phase = Phases.Delivered;\n\n        emit SupplyChainPhase(\n            strawberryIndex,\n            uint256(strawberries[_strawberryIndex]._phase),\n            uint256(strawberries[strawberryIndex]._status),\n            address(_strawberryIndex)\n        );\n    }\n\n    function changeStatusWarning(uint256 _strawberryIndex) public {\n        strawberries[_strawberryIndex]._status = Status.Warning;\n    }\n\n    function changeStatusUnfit(uint256 _strawberryIndex) public {\n        strawberries[_strawberryIndex]._status = Status.UnfitForSale;\n    }\n}\n",
  "sourcePath": "/home/tim/Documents/uni/strawberry/contracts/StrawberryManager.sol",
  "compiler": {
    "name": "solc",
    "version": "0.6.1+commit.e6f7d5a4.Emscripten.clang"
  },
  "schemaVersion": "3.0.20",
  "updatedAt": "2020-07-25T05:16:45.566Z",
  "networkType": "ethereum",
  "devdoc": {
    "methods": {}
  },
  "userdoc": {
    "methods": {}
  }
}