{
  "contractName": "StrawberryManager",
  "abi": [
    {
      "anonymous": false,
      "inputs": [
        {
          "indexed": false,
          "internalType": "uint256",
          "name": "_strawberryIndex",
          "type": "uint256"
        },
        {
          "indexed": false,
          "internalType": "uint256",
          "name": "_phase",
          "type": "uint256"
        },
        {
          "indexed": false,
          "internalType": "uint256",
          "name": "_status",
          "type": "uint256"
        },
        {
          "indexed": false,
          "internalType": "address",
          "name": "_address",
          "type": "address"
        }
      ],
      "name": "SupplyChainPhase",
      "type": "event"
    },
    {
      "inputs": [
        {
          "internalType": "uint256",
          "name": "",
          "type": "uint256"
        }
      ],
      "name": "strawberries",
      "outputs": [
        {
          "internalType": "contract Strawberry",
          "name": "_strawberry",
          "type": "address"
        },
        {
          "internalType": "string",
          "name": "_identifier",
          "type": "string"
        },
        {
          "internalType": "enum StrawberryManager.Phases",
          "name": "_phase",
          "type": "uint8"
        },
        {
          "internalType": "enum StrawberryManager.Status",
          "name": "_status",
          "type": "uint8"
        },
        {
          "internalType": "uint256",
          "name": "_priceInWei",
          "type": "uint256"
        }
      ],
      "stateMutability": "view",
      "type": "function",
      "constant": true
    },
    {
      "inputs": [
        {
          "internalType": "string",
          "name": "_identifier",
          "type": "string"
        },
        {
          "internalType": "uint256",
          "name": "_priceInWei",
          "type": "uint256"
        }
      ],
      "name": "createStrawberry",
      "outputs": [],
      "stateMutability": "nonpayable",
      "type": "function"
    },
    {
      "inputs": [
        {
          "internalType": "uint256",
          "name": "_index",
          "type": "uint256"
        }
      ],
      "name": "triggerPayment",
      "outputs": [],
      "stateMutability": "payable",
      "type": "function",
      "payable": true
    },
    {
      "inputs": [
        {
          "internalType": "uint256",
          "name": "_strawberryIndex",
          "type": "uint256"
        }
      ],
      "name": "package",
      "outputs": [],
      "stateMutability": "nonpayable",
      "type": "function"
    },
    {
      "inputs": [
        {
          "internalType": "uint256",
          "name": "_strawberryIndex",
          "type": "uint256"
        }
      ],
      "name": "deliver",
      "outputs": [],
      "stateMutability": "nonpayable",
      "type": "function"
    },
    {
      "inputs": [
        {
          "internalType": "uint256",
          "name": "_strawberryIndex",
          "type": "uint256"
        }
      ],
      "name": "changeStatusWarning",
      "outputs": [],
      "stateMutability": "nonpayable",
      "type": "function"
    },
    {
      "inputs": [
        {
          "internalType": "uint256",
          "name": "_strawberryIndex",
          "type": "uint256"
        }
      ],
      "name": "changeStatusUnfit",
      "outputs": [],
      "stateMutability": "nonpayable",
      "type": "function"
    },
    {
      "inputs": [
        {
          "internalType": "uint256",
          "name": "_strawberryIndex",
          "type": "uint256"
        }
      ],
      "name": "changeStatusGood",
      "outputs": [],
      "stateMutability": "nonpayable",
      "type": "function"
    }
  ],
  "bytecode": "0x608060405234801561001057600080fd5b506117f8806100206000396000f3fe60806040526004361061007b5760003560e01c8063800fb83f1161004e578063800fb83f14610203578063976e0c6c146102315780639f6b04b21461026c578063d29b92cc146102a75761007b565b80633bd5d1731461008057806350644316146100bb57806372c5481b146100f65780637f48eb4b146101c8575b600080fd5b34801561008c57600080fd5b506100b9600480360360208110156100a357600080fd5b81019080803590602001909291905050506103bf565b005b3480156100c757600080fd5b506100f4600480360360208110156100de57600080fd5b8101908080359060200190929190505050610580565b005b34801561010257600080fd5b506101c66004803603604081101561011957600080fd5b810190808035906020019064010000000081111561013657600080fd5b82018360208201111561014857600080fd5b8035906020019184600183028401116401000000008311171561016a57600080fd5b91908080601f016020809104026020016040519081016040528093929190818152602001838380828437600081840152601f19601f8201169050808301925050505050505091929192908035906020019092919050505061068f565b005b3480156101d457600080fd5b50610201600480360360208110156101eb57600080fd5b8101908080359060200190929190505050610907565b005b61022f6004803603602081101561021957600080fd5b8101908080359060200190929190505050610aa7565b005b34801561023d57600080fd5b5061026a6004803603602081101561025457600080fd5b8101908080359060200190929190505050610daf565b005b34801561027857600080fd5b506102a56004803603602081101561028f57600080fd5b8101908080359060200190929190505050610f6c565b005b3480156102b357600080fd5b506102e0600480360360208110156102ca57600080fd5b810190808035906020019092919050505061110c565b604051808673ffffffffffffffffffffffffffffffffffffffff1673ffffffffffffffffffffffffffffffffffffffff1681526020018060200185600381111561032657fe5b60ff16815260200184600281111561033a57fe5b60ff168152602001838152602001828103825286818151815260200191508051906020019080838360005b83811015610380578082015181840152602081019050610365565b50505050905090810190601f1680156103ad5780820380516001836020036101000a031916815260200191505b50965050505050505060405180910390f35b600160038111156103cc57fe5b60008083815260200190815260200160002060020160009054906101000a900460ff1660038111156103fa57fe5b1461046d576040517f08c379a000000000000000000000000000000000000000000000000000000000815260040180806020018281038252601c8152602001807f6974656d206973206675727468657220696e2074686520636861696e0000000081525060200191505060405180910390fd5b600260008083815260200190815260200160002060020160006101000a81548160ff0219169083600381111561049f57fe5b02179055507f986f85536d189a0de7bc7d7d6f9a321a17a3540eb246f8ac9afcf5240aabd09d60015460008084815260200190815260200160002060020160009054906101000a900460ff1660038111156104f657fe5b600080600154815260200190815260200160002060020160019054906101000a900460ff16600281111561052657fe5b84604051808581526020018481526020018381526020018273ffffffffffffffffffffffffffffffffffffffff1673ffffffffffffffffffffffffffffffffffffffff16815260200194505050505060405180910390a150565b600260008083815260200190815260200160002060020160016101000a81548160ff021916908360028111156105b257fe5b02179055507f986f85536d189a0de7bc7d7d6f9a321a17a3540eb246f8ac9afcf5240aabd09d8160008084815260200190815260200160002060020160009054906101000a900460ff16600381111561060757fe5b60008085815260200190815260200160002060020160019054906101000a900460ff16600281111561063557fe5b84604051808581526020018481526020018381526020018273ffffffffffffffffffffffffffffffffffffffff1673ffffffffffffffffffffffffffffffffffffffff16815260200194505050505060405180910390a150565b600030826001546040516106a290611214565b808473ffffffffffffffffffffffffffffffffffffffff1673ffffffffffffffffffffffffffffffffffffffff1681526020018381526020018281526020019350505050604051809103906000f080158015610702573d6000803e3d6000fd5b50905080600080600154815260200190815260200160002060000160006101000a81548173ffffffffffffffffffffffffffffffffffffffff021916908373ffffffffffffffffffffffffffffffffffffffff1602179055508260008060015481526020019081526020016000206001019080519060200190610786929190611221565b50816000806001548152602001908152602001600020600301819055506000806000600154815260200190815260200160002060020160006101000a81548160ff021916908360038111156107d757fe5b02179055506000806000600154815260200190815260200160002060020160016101000a81548160ff0219169083600281111561081057fe5b02179055507f986f85536d189a0de7bc7d7d6f9a321a17a3540eb246f8ac9afcf5240aabd09d600154600080600154815260200190815260200160002060020160009054906101000a900460ff16600381111561086957fe5b600080600154815260200190815260200160002060020160019054906101000a900460ff16600281111561089957fe5b84604051808581526020018481526020018381526020018273ffffffffffffffffffffffffffffffffffffffff1673ffffffffffffffffffffffffffffffffffffffff16815260200194505050505060405180910390a1600160008154809291906001019190505550505050565b60028081111561091357fe5b60008083815260200190815260200160002060020160019054906101000a900460ff16600281111561094157fe5b1415610998576040517f08c379a000000000000000000000000000000000000000000000000000000000815260040180806020018281038252602481526020018061179f6024913960400191505060405180910390fd5b600160008083815260200190815260200160002060020160016101000a81548160ff021916908360028111156109ca57fe5b02179055507f986f85536d189a0de7bc7d7d6f9a321a17a3540eb246f8ac9afcf5240aabd09d8160008084815260200190815260200160002060020160009054906101000a900460ff166003811115610a1f57fe5b60008085815260200190815260200160002060020160019054906101000a900460ff166002811115610a4d57fe5b84604051808581526020018481526020018381526020018273ffffffffffffffffffffffffffffffffffffffff1673ffffffffffffffffffffffffffffffffffffffff16815260200194505050505060405180910390a150565b600080600083815260200190815260200160002060000160009054906101000a900473ffffffffffffffffffffffffffffffffffffffff1690503373ffffffffffffffffffffffffffffffffffffffff168173ffffffffffffffffffffffffffffffffffffffff1614610b65576040517f08c379a000000000000000000000000000000000000000000000000000000000815260040180806020018281038252602b815260200180611774602b913960400191505060405180910390fd5b348173ffffffffffffffffffffffffffffffffffffffff16633c8da5886040518163ffffffff1660e01b815260040160206040518083038186803b158015610bac57600080fd5b505afa158015610bc0573d6000803e3d6000fd5b505050506040513d6020811015610bd657600080fd5b810190808051906020019092919050505014610c5a576040517f08c379a00000000000000000000000000000000000000000000000000000000081526004018080602001828103825260128152602001807f6e6f742066756c6c79207061696420796574000000000000000000000000000081525060200191505060405180910390fd5b60026003811115610c6757fe5b60008084815260200190815260200160002060020160009054906101000a900460ff166003811115610c9557fe5b14610c9f57600080fd5b600360008084815260200190815260200160002060020160006101000a81548160ff02191690836003811115610cd157fe5b02179055507f986f85536d189a0de7bc7d7d6f9a321a17a3540eb246f8ac9afcf5240aabd09d8260008085815260200190815260200160002060020160009054906101000a900460ff166003811115610d2657fe5b60008086815260200190815260200160002060020160019054906101000a900460ff166002811115610d5457fe5b84604051808581526020018481526020018381526020018273ffffffffffffffffffffffffffffffffffffffff1673ffffffffffffffffffffffffffffffffffffffff16815260200194505050505060405180910390a15050565b60006003811115610dbc57fe5b60008083815260200190815260200160002060020160009054906101000a900460ff166003811115610dea57fe5b14610e5d576040517f08c379a000000000000000000000000000000000000000000000000000000000815260040180806020018281038252601c8152602001807f6974656d206973206675727468657220696e2074686520636861696e0000000081525060200191505060405180910390fd5b600160008083815260200190815260200160002060020160006101000a81548160ff02191690836003811115610e8f57fe5b02179055507f986f85536d189a0de7bc7d7d6f9a321a17a3540eb246f8ac9afcf5240aabd09d8160008084815260200190815260200160002060020160009054906101000a900460ff166003811115610ee457fe5b60008085815260200190815260200160002060020160019054906101000a900460ff166002811115610f1257fe5b84604051808581526020018481526020018381526020018273ffffffffffffffffffffffffffffffffffffffff1673ffffffffffffffffffffffffffffffffffffffff16815260200194505050505060405180910390a150565b600280811115610f7857fe5b60008083815260200190815260200160002060020160019054906101000a900460ff166002811115610fa657fe5b1415610ffd576040517f08c379a000000000000000000000000000000000000000000000000000000000815260040180806020018281038252602481526020018061179f6024913960400191505060405180910390fd5b600080600083815260200190815260200160002060020160016101000a81548160ff0219169083600281111561102f57fe5b02179055507f986f85536d189a0de7bc7d7d6f9a321a17a3540eb246f8ac9afcf5240aabd09d8160008084815260200190815260200160002060020160009054906101000a900460ff16600381111561108457fe5b60008085815260200190815260200160002060020160019054906101000a900460ff1660028111156110b257fe5b84604051808581526020018481526020018381526020018273ffffffffffffffffffffffffffffffffffffffff1673ffffffffffffffffffffffffffffffffffffffff16815260200194505050505060405180910390a150565b60006020528060005260406000206000915090508060000160009054906101000a900473ffffffffffffffffffffffffffffffffffffffff1690806001018054600181600116156101000203166002900480601f0160208091040260200160405190810160405280929190818152602001828054600181600116156101000203166002900480156111de5780601f106111b3576101008083540402835291602001916111de565b820191906000526020600020905b8154815290600101906020018083116111c157829003601f168201915b5050505050908060020160009054906101000a900460ff16908060020160019054906101000a900460ff16908060030154905085565b6104ad806112c783390190565b828054600181600116156101000203166002900490600052602060002090601f016020900481019282601f1061126257805160ff1916838001178555611290565b82800160010185558215611290579182015b8281111561128f578251825591602001919060010190611274565b5b50905061129d91906112a1565b5090565b6112c391905b808211156112bf5760008160009055506001016112a7565b5090565b9056fe608060405234801561001057600080fd5b506040516104ad3803806104ad8339818101604052606081101561003357600080fd5b81019080805190602001909291908051906020019092919080519060200190929190505050816000819055508060028190555082600360006101000a81548173ffffffffffffffffffffffffffffffffffffffff021916908373ffffffffffffffffffffffffffffffffffffffff1602179055505050506103f4806100b96000396000f3fe6080604052600436106100385760003560e01c80632986c0e51461032b5780633c8da5881461035657806383d12eef146103815761031c565b3661031c5760005434146100b4576040517f08c379a00000000000000000000000000000000000000000000000000000000081526004018080602001828103825260118152602001807f66756c6c207061796d656e74206f6e6c7900000000000000000000000000000081525060200191505060405180910390fd5b60006001541461012c576040517f08c379a00000000000000000000000000000000000000000000000000000000081526004018080602001828103825260118152602001807f6974656d207061696420616c726561647900000000000000000000000000000081525060200191505060405180910390fd5b346001600082825401925050819055506000600360009054906101000a900473ffffffffffffffffffffffffffffffffffffffff1673ffffffffffffffffffffffffffffffffffffffff1634600254604051602401808281526020019150506040516020818303038152906040527f800fb83f000000000000000000000000000000000000000000000000000000007bffffffffffffffffffffffffffffffffffffffffffffffffffffffff19166020820180517bffffffffffffffffffffffffffffffffffffffffffffffffffffffff83818316178352505050506040518082805190602001908083835b6020831061023b5780518252602082019150602081019050602083039250610218565b6001836020036101000a03801982511681845116808217855250505050505090500191505060006040518083038185875af1925050503d806000811461029d576040519150601f19603f3d011682016040523d82523d6000602084013e6102a2565b606091505b5050905080610319576040517f08c379a00000000000000000000000000000000000000000000000000000000081526004018080602001828103825260148152602001807f64656c6976657220646964206e6f7420776f726b00000000000000000000000081525060200191505060405180910390fd5b50005b34801561032857600080fd5b50005b34801561033757600080fd5b506103406103ac565b6040518082815260200191505060405180910390f35b34801561036257600080fd5b5061036b6103b2565b6040518082815260200191505060405180910390f35b34801561038d57600080fd5b506103966103b8565b6040518082815260200191505060405180910390f35b60025481565b60005481565b6001548156fea2646970667358221220704f97068c70931f1726d0f8d7776afbd8929510ecd5f579e3161b8f46c6b90a64736f6c634300060100336f6e6c79206974656d732061726520616c6c6f77656420746f20757064617465207468656d73656c766573756e666974207374726177626572726965732063616e6e6f7420626520616c7465726564a2646970667358221220f69ca2bbd7d1c456c18d217655314bcd5c07bc1d92275edc54ed6d9c80da3c6764736f6c63430006010033",
  "source": "pragma solidity ^0.6.0;\n\nimport \"./Strawberry.sol\";\n\n//import \"@openzeppelin/contracts/access/Ownable.sol\";\n//import \"https://github.com/OpenZeppelin/openzeppelin-contracts/blob/master/contracts/access/Ownable.sol\";\n\n/*is Ownable*/\ncontract StrawberryManager {\n    enum Phases {Processed, Packaged, Delivered, Paid}\n    enum Status {Good, Warning, UnfitForSale}\n\n    struct S_Strawberry {\n        Strawberry _strawberry;\n        string _identifier;\n        StrawberryManager.Phases _phase;\n        StrawberryManager.Status _status;\n        uint256 _priceInWei;\n    }\n\n    mapping(uint256 => S_Strawberry) public strawberries;\n    uint256 strawberryIndex;\n\n    event SupplyChainPhase(\n        uint256 _strawberryIndex,\n        uint256 _phase,\n        uint256 _status,\n        address _address\n    );\n\n    function createStrawberry(string memory _identifier, uint256 _priceInWei)\n        public\n    /*onlyOwner*/\n    {\n        Strawberry strawberry = new Strawberry(\n            this,\n            _priceInWei,\n            strawberryIndex\n        );\n        strawberries[strawberryIndex]._strawberry = strawberry;\n        strawberries[strawberryIndex]._identifier = _identifier;\n        strawberries[strawberryIndex]._priceInWei = _priceInWei;\n        strawberries[strawberryIndex]._phase = Phases.Processed;\n        strawberries[strawberryIndex]._status = Status.Good;\n        emit SupplyChainPhase(\n            strawberryIndex,\n            uint256(strawberries[strawberryIndex]._phase),\n            uint256(strawberries[strawberryIndex]._status),\n            address(strawberry)\n        );\n        strawberryIndex++;\n    }\n\n    function triggerPayment(uint256 _index) public payable {\n        Strawberry strawberry = strawberries[_index]._strawberry;\n        require(\n            address(strawberry) == msg.sender,\n            \"only items are allowed to update themselves\"\n        );\n        require(strawberry.priceInWei() == msg.value, \"not fully paid yet\");\n        require(strawberries[_index]._phase == Phases.Delivered);\n        strawberries[_index]._phase = Phases.Paid;\n        emit SupplyChainPhase(\n            _index,\n            uint256(strawberries[_index]._phase),\n            uint256(strawberries[_index]._status),\n            address(strawberry)\n        );\n    }\n\n    function package(uint256 _strawberryIndex) public {\n        //perform checks like the user is allowed to change the phase\n        require(\n            strawberries[_strawberryIndex]._phase == Phases.Processed,\n            \"item is further in the chain\"\n        );\n        strawberries[_strawberryIndex]._phase = Phases.Packaged;\n\n        emit SupplyChainPhase(\n            _strawberryIndex,\n            uint256(strawberries[_strawberryIndex]._phase),\n            uint256(strawberries[_strawberryIndex]._status),\n            address(_strawberryIndex)\n        );\n    }\n\n    function deliver(uint256 _strawberryIndex) public {\n        //perform checks like the user is allowed to change the phase\n        require(\n            strawberries[_strawberryIndex]._phase == Phases.Packaged,\n            \"item is further in the chain\"\n        );\n        strawberries[_strawberryIndex]._phase = Phases.Delivered;\n\n        emit SupplyChainPhase(\n            strawberryIndex,\n            uint256(strawberries[_strawberryIndex]._phase),\n            uint256(strawberries[strawberryIndex]._status),\n            address(_strawberryIndex)\n        );\n    }\n\n    function changeStatusWarning(uint256 _strawberryIndex) public {\n        require(\n            strawberries[_strawberryIndex]._status != Status.UnfitForSale,\n            \"unfit strawberries cannot be altered\"\n        );\n        strawberries[_strawberryIndex]._status = Status.Warning;\n\n        emit SupplyChainPhase(\n            _strawberryIndex,\n            uint256(strawberries[_strawberryIndex]._phase),\n            uint256(strawberries[_strawberryIndex]._status),\n            address(_strawberryIndex)\n        );\n    }\n\n    function changeStatusUnfit(uint256 _strawberryIndex) public {\n        strawberries[_strawberryIndex]._status = Status.UnfitForSale;\n\n        emit SupplyChainPhase(\n            _strawberryIndex,\n            uint256(strawberries[_strawberryIndex]._phase),\n            uint256(strawberries[_strawberryIndex]._status),\n            address(_strawberryIndex)\n        );\n    }\n\n    function changeStatusGood(uint256 _strawberryIndex) public {\n        require(\n            strawberries[_strawberryIndex]._status != Status.UnfitForSale,\n            \"unfit strawberries cannot be altered\"\n        );\n        strawberries[_strawberryIndex]._status = Status.Good;\n\n        emit SupplyChainPhase(\n            _strawberryIndex,\n            uint256(strawberries[_strawberryIndex]._phase),\n            uint256(strawberries[_strawberryIndex]._status),\n            address(_strawberryIndex)\n        );\n    }\n}\n",
  "sourcePath": "/home/tim/Documents/uni/strawberry/contracts/StrawberryManager.sol",
  "compiler": {
    "name": "solc",
    "version": "0.6.1+commit.e6f7d5a4.Emscripten.clang"
  },
  "schemaVersion": "3.0.20",
  "updatedAt": "2020-07-29T11:33:59.878Z",
  "networkType": "ethereum",
  "devdoc": {
    "methods": {}
  },
  "userdoc": {
    "methods": {}
  }
}