{
  "contractName": "StrawberryManager",
  "abi": [
    {
      "anonymous": false,
      "inputs": [
        {
          "indexed": false,
          "internalType": "string",
          "name": "_identifier",
          "type": "string"
        },
        {
          "indexed": false,
          "internalType": "uint256",
          "name": "_phase",
          "type": "uint256"
        },
        {
          "indexed": false,
          "internalType": "address",
          "name": "_address",
          "type": "address"
        }
      ],
      "name": "SupplyChainPhase",
      "type": "event"
    },
    {
      "inputs": [
        {
          "internalType": "string",
          "name": "",
          "type": "string"
        }
      ],
      "name": "strawberries",
      "outputs": [
        {
          "internalType": "contract Strawberry",
          "name": "_strawberry",
          "type": "address"
        },
        {
          "internalType": "string",
          "name": "_identifier",
          "type": "string"
        },
        {
          "internalType": "enum StrawberryManager.Phases",
          "name": "_phase",
          "type": "uint8"
        },
        {
          "internalType": "uint256",
          "name": "_priceInWei",
          "type": "uint256"
        }
      ],
      "stateMutability": "view",
      "type": "function"
    },
    {
      "inputs": [
        {
          "internalType": "string",
          "name": "_identifier",
          "type": "string"
        },
        {
          "internalType": "uint256",
          "name": "_priceInWei",
          "type": "uint256"
        }
      ],
      "name": "createStrawberry",
      "outputs": [],
      "stateMutability": "nonpayable",
      "type": "function"
    },
    {
      "inputs": [
        {
          "internalType": "string",
          "name": "_identifier",
          "type": "string"
        }
      ],
      "name": "triggerPayment",
      "outputs": [],
      "stateMutability": "payable",
      "type": "function"
    },
    {
      "inputs": [
        {
          "internalType": "string",
          "name": "_identifier",
          "type": "string"
        }
      ],
      "name": "finishProcessing",
      "outputs": [],
      "stateMutability": "nonpayable",
      "type": "function"
    },
    {
      "inputs": [
        {
          "internalType": "string",
          "name": "_identifier",
          "type": "string"
        }
      ],
      "name": "finishPackaging",
      "outputs": [],
      "stateMutability": "nonpayable",
      "type": "function"
    }
  ],
  "bytecode": "0x608060405234801561001057600080fd5b50611acd806100206000396000f3fe608060405260043610620000505760003560e01c806337625fc4146200005557806372c5481b14620001f05780637bf2a69814620002c9578063e3837b55146200038a578063e9d3760c1462000459575b600080fd5b3480156200006257600080fd5b5062000122600480360360208110156200007b57600080fd5b81019080803590602001906401000000008111156200009957600080fd5b820183602082011115620000ac57600080fd5b80359060200191846001830284011164010000000083111715620000cf57600080fd5b91908080601f016020809104026020016040519081016040528093929190818152602001838380828437600081840152601f19601f82011690508083019250505050505050919291929050505062000528565b604051808573ffffffffffffffffffffffffffffffffffffffff1673ffffffffffffffffffffffffffffffffffffffff168152602001806020018460038111156200016957fe5b60ff168152602001838152602001828103825285818151815260200191508051906020019080838360005b83811015620001b157808201518184015260208101905062000194565b50505050905090810190601f168015620001df5780820380516001836020036101000a031916815260200191505b509550505050505060405180910390f35b348015620001fd57600080fd5b50620002c7600480360360408110156200021657600080fd5b81019080803590602001906401000000008111156200023457600080fd5b8201836020820111156200024757600080fd5b803590602001918460018302840111640100000000831117156200026a57600080fd5b91908080601f016020809104026020016040519081016040528093929190818152602001838380828437600081840152601f19601f8201169050808301925050505050505091929192908035906020019092919050505062000637565b005b6200038860048036036020811015620002e157600080fd5b8101908080359060200190640100000000811115620002ff57600080fd5b8201836020820111156200031257600080fd5b803590602001918460018302840111640100000000831117156200033557600080fd5b91908080601f016020809104026020016040519081016040528093929190818152602001838380828437600081840152601f19601f82011690508083019250505050505050919291929050505062000ac4565b005b3480156200039757600080fd5b506200045760048036036020811015620003b057600080fd5b8101908080359060200190640100000000811115620003ce57600080fd5b820183602082011115620003e157600080fd5b803590602001918460018302840111640100000000831117156200040457600080fd5b91908080601f016020809104026020016040519081016040528093929190818152602001838380828437600081840152601f19601f82011690508083019250505050505050919291929050505062000fba565b005b3480156200046657600080fd5b5062000526600480360360208110156200047f57600080fd5b81019080803590602001906401000000008111156200049d57600080fd5b820183602082011115620004b057600080fd5b80359060200191846001830284011164010000000083111715620004d357600080fd5b91908080601f016020809104026020016040519081016040528093929190818152602001838380828437600081840152601f19601f8201169050808301925050505050505091929192905050506200104e565b005b6000818051602081018201805184825260208301602085012081835280955050505050506000915090508060000160009054906101000a900473ffffffffffffffffffffffffffffffffffffffff1690806001018054600181600116156101000203166002900480601f016020809104026020016040519081016040528092919081815260200182805460018160011615610100020316600290048015620006145780601f10620005e85761010080835404028352916020019162000614565b820191906000526020600020905b815481529060010190602001808311620005f657829003601f168201915b5050505050908060020160009054906101000a900460ff16908060030154905084565b60003082846040516200064a90620011ec565b808473ffffffffffffffffffffffffffffffffffffffff1673ffffffffffffffffffffffffffffffffffffffff16815260200183815260200180602001828103825283818151815260200191508051906020019080838360005b83811015620006c1578082015181840152602081019050620006a4565b50505050905090810190601f168015620006ef5780820380516001836020036101000a031916815260200191505b50945050505050604051809103906000f08015801562000713573d6000803e3d6000fd5b509050806000846040518082805190602001908083835b602083106200074f57805182526020820191506020810190506020830392506200072a565b6001836020036101000a038019825116818451168082178552505050505050905001915050908152602001604051809103902060000160006101000a81548173ffffffffffffffffffffffffffffffffffffffff021916908373ffffffffffffffffffffffffffffffffffffffff160217905550826000846040518082805190602001908083835b60208310620007fc5780518252602082019150602081019050602083039250620007d7565b6001836020036101000a0380198251168184511680821785525050505050509050019150509081526020016040518091039020600101908051906020019062000847929190620011fa565b50816000846040518082805190602001908083835b602083106200088157805182526020820191506020810190506020830392506200085c565b6001836020036101000a038019825116818451168082178552505050505050905001915050908152602001604051809103902060030181905550600080846040518082805190602001908083835b60208310620008f45780518252602082019150602081019050602083039250620008cf565b6001836020036101000a038019825116818451168082178552505050505050905001915050908152602001604051809103902060020160006101000a81548160ff021916908360038111156200094657fe5b02179055507f2af1b094060ea596201d7fd87a21e414a0bdb538e0d473e62cc6eff30f5d5d68836000856040518082805190602001908083835b60208310620009a5578051825260208201915060208101905060208303925062000980565b6001836020036101000a038019825116818451168082178552505050505050905001915050908152602001604051809103902060020160009054906101000a900460ff166003811115620009f557fe5b8360405180806020018481526020018373ffffffffffffffffffffffffffffffffffffffff1673ffffffffffffffffffffffffffffffffffffffff168152602001828103825285818151815260200191508051906020019080838360005b8381101562000a7057808201518184015260208101905062000a53565b50505050905090810190601f16801562000a9e5780820380516001836020036101000a031916815260200191505b5094505050505060405180910390a1600160008154809291906001019190505550505050565b600080826040518082805190602001908083835b6020831062000afd578051825260208201915060208101905060208303925062000ad8565b6001836020036101000a038019825116818451168082178552505050505050905001915050908152602001604051809103902060000160009054906101000a900473ffffffffffffffffffffffffffffffffffffffff1690503373ffffffffffffffffffffffffffffffffffffffff168173ffffffffffffffffffffffffffffffffffffffff161462000bdc576040517f08c379a000000000000000000000000000000000000000000000000000000000815260040180806020018281038252602b81526020018062001a39602b913960400191505060405180910390fd5b348173ffffffffffffffffffffffffffffffffffffffff16633c8da5886040518163ffffffff1660e01b815260040160206040518083038186803b15801562000c2457600080fd5b505afa15801562000c39573d6000803e3d6000fd5b505050506040513d602081101562000c5057600080fd5b81019080805190602001909291905050501462000cd5576040517f08c379a00000000000000000000000000000000000000000000000000000000081526004018080602001828103825260128152602001807f6e6f742066756c6c79207061696420796574000000000000000000000000000081525060200191505060405180910390fd5b6002600381111562000ce357fe5b6000836040518082805190602001908083835b6020831062000d1b578051825260208201915060208101905060208303925062000cf6565b6001836020036101000a038019825116818451168082178552505050505050905001915050908152602001604051809103902060020160009054906101000a900460ff16600381111562000d6b57fe5b1462000dc3576040517f08c379a000000000000000000000000000000000000000000000000000000000815260040180806020018281038252603481526020018062001a646034913960400191505060405180910390fd5b60036000836040518082805190602001908083835b6020831062000dfd578051825260208201915060208101905060208303925062000dd8565b6001836020036101000a038019825116818451168082178552505050505050905001915050908152602001604051809103902060020160006101000a81548160ff0219169083600381111562000e4f57fe5b02179055507f2af1b094060ea596201d7fd87a21e414a0bdb538e0d473e62cc6eff30f5d5d68826000846040518082805190602001908083835b6020831062000eae578051825260208201915060208101905060208303925062000e89565b6001836020036101000a038019825116818451168082178552505050505050905001915050908152602001604051809103902060020160009054906101000a900460ff16600381111562000efe57fe5b8360405180806020018481526020018373ffffffffffffffffffffffffffffffffffffffff1673ffffffffffffffffffffffffffffffffffffffff168152602001828103825285818151815260200191508051906020019080838360005b8381101562000f7957808201518184015260208101905062000f5c565b50505050905090810190601f16801562000fa75780820380516001836020036101000a031916815260200191505b5094505050505060405180910390a15050565b60016000826040518082805190602001908083835b6020831062000ff4578051825260208201915060208101905060208303925062000fcf565b6001836020036101000a038019825116818451168082178552505050505050905001915050908152602001604051809103902060020160006101000a81548160ff021916908360038111156200104657fe5b021790555050565b600160038111156200105c57fe5b6000826040518082805190602001908083835b602083106200109457805182526020820191506020810190506020830392506200106f565b6001836020036101000a038019825116818451168082178552505050505050905001915050908152602001604051809103902060020160009054906101000a900460ff166003811115620010e457fe5b1462001158576040517f08c379a000000000000000000000000000000000000000000000000000000000815260040180806020018281038252601c8152602001807f6974656d206973206675727468657220696e2074686520636861696e0000000081525060200191505060405180910390fd5b60026000826040518082805190602001908083835b602083106200119257805182526020820191506020810190506020830392506200116d565b6001836020036101000a038019825116818451168082178552505050505050905001915050908152602001604051809103902060020160006101000a81548160ff02191690836003811115620011e457fe5b021790555050565b61078f80620012aa83390190565b828054600181600116156101000203166002900490600052602060002090601f016020900481019282601f106200123d57805160ff19168380011785556200126e565b828001600101855582156200126e579182015b828111156200126d57825182559160200191906001019062001250565b5b5090506200127d919062001281565b5090565b620012a691905b80821115620012a257600081600090555060010162001288565b5090565b9056fe608060405234801561001057600080fd5b5060405161078f38038061078f8339818101604052606081101561003357600080fd5b8101908080519060200190929190805190602001909291908051604051939291908464010000000082111561006757600080fd5b8382019150602082018581111561007d57600080fd5b825186600182028301116401000000008211171561009a57600080fd5b8083526020830192505050908051906020019080838360005b838110156100ce5780820151818401526020810190506100b3565b50505050905090810190601f1680156100fb5780820380516001836020036101000a031916815260200191505b5060405250505081600081905550806002908051906020019061011f929190610169565b5082600360006101000a81548173ffffffffffffffffffffffffffffffffffffffff021916908373ffffffffffffffffffffffffffffffffffffffff16021790555050505061020e565b828054600181600116156101000203166002900490600052602060002090601f016020900481019282601f106101aa57805160ff19168380011785556101d8565b828001600101855582156101d8579182015b828111156101d75782518255916020019190600101906101bc565b5b5090506101e591906101e9565b5090565b61020b91905b808211156102075760008160009055506001016101ef565b5090565b90565b6105728061021d6000396000f3fe6080604052600436106100385760003560e01c80633c8da588146103ac5780637998a1c4146103d757806383d12eef146104675761039d565b3661039d5760005434146100b4576040517f08c379a00000000000000000000000000000000000000000000000000000000081526004018080602001828103825260118152602001807f66756c6c207061796d656e74206f6e6c7900000000000000000000000000000081525060200191505060405180910390fd5b60006001541461012c576040517f08c379a00000000000000000000000000000000000000000000000000000000081526004018080602001828103825260118152602001807f6974656d207061696420616c726561647900000000000000000000000000000081525060200191505060405180910390fd5b346001600082825401925050819055506000600360009054906101000a900473ffffffffffffffffffffffffffffffffffffffff1673ffffffffffffffffffffffffffffffffffffffff1634600260405160240180806020018281038252838181546001816001161561010002031660029004815260200191508054600181600116156101000203166002900480156102065780601f106101db57610100808354040283529160200191610206565b820191906000526020600020905b8154815290600101906020018083116101e957829003601f168201915b5050925050506040516020818303038152906040527f7bf2a698000000000000000000000000000000000000000000000000000000007bffffffffffffffffffffffffffffffffffffffffffffffffffffffff19166020820180517bffffffffffffffffffffffffffffffffffffffffffffffffffffffff83818316178352505050506040518082805190602001908083835b602083106102bc5780518252602082019150602081019050602083039250610299565b6001836020036101000a03801982511681845116808217855250505050505090500191505060006040518083038185875af1925050503d806000811461031e576040519150601f19603f3d011682016040523d82523d6000602084013e610323565b606091505b505090508061039a576040517f08c379a00000000000000000000000000000000000000000000000000000000081526004018080602001828103825260148152602001807f64656c6976657220646964206e6f7420776f726b00000000000000000000000081525060200191505060405180910390fd5b50005b3480156103a957600080fd5b50005b3480156103b857600080fd5b506103c1610492565b6040518082815260200191505060405180910390f35b3480156103e357600080fd5b506103ec610498565b6040518080602001828103825283818151815260200191508051906020019080838360005b8381101561042c578082015181840152602081019050610411565b50505050905090810190601f1680156104595780820380516001836020036101000a031916815260200191505b509250505060405180910390f35b34801561047357600080fd5b5061047c610536565b6040518082815260200191505060405180910390f35b60005481565b60028054600181600116156101000203166002900480601f01602080910402602001604051908101604052809291908181526020018280546001816001161561010002031660029004801561052e5780601f106105035761010080835404028352916020019161052e565b820191906000526020600020905b81548152906001019060200180831161051157829003601f168201915b505050505081565b6001548156fea2646970667358221220cb68cca302d86b5820bab5fcaa8a81356ecb66e13560d7a8a3cdccf9050c1d1264736f6c634300060100336f6e6c79206974656d732061726520616c6c6f77656420746f20757064617465207468656d73656c76657373747261776265727279206d7573742062652064656c697665726564206265666f7265207061796d656e7420706f737369626c65a264697066735822122034dfae2471d07f91b72760b225e3cb2164c71c2eeb519dd8fb79a62bd0626b9564736f6c63430006010033",
  "source": "pragma solidity ^0.6.0;\n\nimport \"./Strawberry.sol\";\n\n//import \"@openzeppelin/contracts/access/Ownable.sol\";\n//import \"https://github.com/OpenZeppelin/openzeppelin-contracts/blob/master/contracts/access/Ownable.sol\";\n\n/*is Ownable*/\ncontract StrawberryManager {\n    enum Phases {Processed, Packaged, Delivered, Paid}\n\n    struct S_Strawberry {\n        Strawberry _strawberry;\n        string _identifier;\n        StrawberryManager.Phases _phase;\n        uint256 _priceInWei;\n    }\n\n    mapping(string => S_Strawberry) public strawberries;\n    uint256 numStrawberries;\n\n    event SupplyChainPhase(\n        string _identifier,\n        uint256 _phase,\n        address _address\n    );\n\n    function createStrawberry(string memory _identifier, uint256 _priceInWei)\n        public\n    /*onlyOwner*/\n    {\n        Strawberry strawberry = new Strawberry(this, _priceInWei, _identifier);\n        strawberries[_identifier]._strawberry = strawberry;\n        strawberries[_identifier]._identifier = _identifier;\n        strawberries[_identifier]._priceInWei = _priceInWei;\n        strawberries[_identifier]._phase = Phases.Processed;\n        emit SupplyChainPhase(\n            _identifier,\n            uint256(strawberries[_identifier]._phase),\n            address(strawberry)\n        );\n        numStrawberries++;\n    }\n\n    function triggerPayment(string memory _identifier) public payable {\n        Strawberry strawberry = strawberries[_identifier]._strawberry;\n        require(\n            address(strawberry) == msg.sender,\n            \"only items are allowed to update themselves\"\n        );\n        require(strawberry.priceInWei() == msg.value, \"not fully paid yet\");\n        require(\n            strawberries[_identifier]._phase == Phases.Delivered,\n            \"strawberry must be delivered before payment possible\"\n        );\n        strawberries[_identifier]._phase = Phases.Paid;\n        emit SupplyChainPhase(\n            _identifier,\n            uint256(strawberries[_identifier]._phase),\n            address(strawberry)\n        );\n    }\n\n    function finishProcessing(string memory _identifier) public {\n        //perform checks like the user is allowed to change the phase\n        /*require(\n            strawberries[_identifier]._phase == Phases.Processed,\n            \"item is further in the chain\"\n        );*/\n        strawberries[_identifier]._phase = Phases.Packaged;\n    }\n\n    function finishPackaging(string memory _identifier) public {\n        //perform checks like the user is allowed to change the phase\n        require(\n            strawberries[_identifier]._phase == Phases.Packaged,\n            \"item is further in the chain\"\n        );\n        strawberries[_identifier]._phase = Phases.Delivered;\n    }\n}\n",
  "sourcePath": "/home/tim/Documents/uni/strawberry/contracts/StrawberryManager.sol",
  "compiler": {
    "name": "solc",
    "version": "0.6.1+commit.e6f7d5a4.Emscripten.clang"
  },
  "schemaVersion": "3.0.20",
  "updatedAt": "2020-07-25T11:40:10.918Z",
  "devdoc": {
    "methods": {}
  },
  "userdoc": {
    "methods": {}
  }
}