{
  "contractName": "Strawberry",
  "abi": [
    {
      "inputs": [
        {
          "internalType": "contract StrawberryManager",
          "name": "_parentContract",
          "type": "address"
        },
        {
          "internalType": "uint256",
          "name": "_priceInWei",
          "type": "uint256"
        },
        {
          "internalType": "string",
          "name": "_identifier",
          "type": "string"
        }
      ],
      "stateMutability": "nonpayable",
      "type": "constructor"
    },
    {
      "stateMutability": "nonpayable",
      "type": "fallback"
    },
    {
      "inputs": [],
      "name": "identifier",
      "outputs": [
        {
          "internalType": "string",
          "name": "",
          "type": "string"
        }
      ],
      "stateMutability": "view",
      "type": "function"
    },
    {
      "inputs": [],
      "name": "paidWei",
      "outputs": [
        {
          "internalType": "uint256",
          "name": "",
          "type": "uint256"
        }
      ],
      "stateMutability": "view",
      "type": "function"
    },
    {
      "inputs": [],
      "name": "priceInWei",
      "outputs": [
        {
          "internalType": "uint256",
          "name": "",
          "type": "uint256"
        }
      ],
      "stateMutability": "view",
      "type": "function"
    },
    {
      "stateMutability": "payable",
      "type": "receive"
    }
  ],
  "bytecode": "0x608060405234801561001057600080fd5b5060405161078f38038061078f8339818101604052606081101561003357600080fd5b8101908080519060200190929190805190602001909291908051604051939291908464010000000082111561006757600080fd5b8382019150602082018581111561007d57600080fd5b825186600182028301116401000000008211171561009a57600080fd5b8083526020830192505050908051906020019080838360005b838110156100ce5780820151818401526020810190506100b3565b50505050905090810190601f1680156100fb5780820380516001836020036101000a031916815260200191505b5060405250505081600081905550806002908051906020019061011f929190610169565b5082600360006101000a81548173ffffffffffffffffffffffffffffffffffffffff021916908373ffffffffffffffffffffffffffffffffffffffff16021790555050505061020e565b828054600181600116156101000203166002900490600052602060002090601f016020900481019282601f106101aa57805160ff19168380011785556101d8565b828001600101855582156101d8579182015b828111156101d75782518255916020019190600101906101bc565b5b5090506101e591906101e9565b5090565b61020b91905b808211156102075760008160009055506001016101ef565b5090565b90565b6105728061021d6000396000f3fe6080604052600436106100385760003560e01c80633c8da588146103ac5780637998a1c4146103d757806383d12eef146104675761039d565b3661039d5760005434146100b4576040517f08c379a00000000000000000000000000000000000000000000000000000000081526004018080602001828103825260118152602001807f66756c6c207061796d656e74206f6e6c7900000000000000000000000000000081525060200191505060405180910390fd5b60006001541461012c576040517f08c379a00000000000000000000000000000000000000000000000000000000081526004018080602001828103825260118152602001807f6974656d207061696420616c726561647900000000000000000000000000000081525060200191505060405180910390fd5b346001600082825401925050819055506000600360009054906101000a900473ffffffffffffffffffffffffffffffffffffffff1673ffffffffffffffffffffffffffffffffffffffff1634600260405160240180806020018281038252838181546001816001161561010002031660029004815260200191508054600181600116156101000203166002900480156102065780601f106101db57610100808354040283529160200191610206565b820191906000526020600020905b8154815290600101906020018083116101e957829003601f168201915b5050925050506040516020818303038152906040527f7bf2a698000000000000000000000000000000000000000000000000000000007bffffffffffffffffffffffffffffffffffffffffffffffffffffffff19166020820180517bffffffffffffffffffffffffffffffffffffffffffffffffffffffff83818316178352505050506040518082805190602001908083835b602083106102bc5780518252602082019150602081019050602083039250610299565b6001836020036101000a03801982511681845116808217855250505050505090500191505060006040518083038185875af1925050503d806000811461031e576040519150601f19603f3d011682016040523d82523d6000602084013e610323565b606091505b505090508061039a576040517f08c379a00000000000000000000000000000000000000000000000000000000081526004018080602001828103825260148152602001807f64656c6976657220646964206e6f7420776f726b00000000000000000000000081525060200191505060405180910390fd5b50005b3480156103a957600080fd5b50005b3480156103b857600080fd5b506103c1610492565b6040518082815260200191505060405180910390f35b3480156103e357600080fd5b506103ec610498565b6040518080602001828103825283818151815260200191508051906020019080838360005b8381101561042c578082015181840152602081019050610411565b50505050905090810190601f1680156104595780820380516001836020036101000a031916815260200191505b509250505060405180910390f35b34801561047357600080fd5b5061047c610536565b6040518082815260200191505060405180910390f35b60005481565b60028054600181600116156101000203166002900480601f01602080910402602001604051908101604052809291908181526020018280546001816001161561010002031660029004801561052e5780601f106105035761010080835404028352916020019161052e565b820191906000526020600020905b81548152906001019060200180831161051157829003601f168201915b505050505081565b6001548156fea2646970667358221220cb68cca302d86b5820bab5fcaa8a81356ecb66e13560d7a8a3cdccf9050c1d1264736f6c63430006010033",
  "source": "pragma solidity ^0.6.0;\n\nimport \"./StrawberryManager.sol\";\n\ncontract Strawberry {\n    uint256 public priceInWei;\n    uint256 public paidWei;\n    string public identifier;\n\n    StrawberryManager parentContract;\n\n    constructor(\n        StrawberryManager _parentContract,\n        uint256 _priceInWei,\n        string memory _identifier\n    ) public {\n        priceInWei = _priceInWei;\n        identifier = _identifier;\n        parentContract = _parentContract;\n    }\n\n    receive() external payable {\n        require(msg.value == priceInWei, \"full payment only\");\n        require(paidWei == 0, \"item paid already\");\n        paidWei += msg.value;\n        (bool success, ) = address(parentContract).call.value(msg.value)(\n            abi.encodeWithSignature(\"triggerPayment(string)\", identifier)\n        );\n        require(success, \"deliver did not work\");\n    }\n\n    fallback() external {}\n}\n",
  "sourcePath": "/home/tim/Documents/uni/strawberry/contracts/Strawberry.sol",
  "compiler": {
    "name": "solc",
    "version": "0.6.1+commit.e6f7d5a4.Emscripten.clang"
  },
  "schemaVersion": "3.0.20",
  "updatedAt": "2020-07-25T11:40:10.916Z",
  "devdoc": {
    "methods": {}
  },
  "userdoc": {
    "methods": {}
  }
}